:100000000C9461000C947E000C947E000C947E0095
:100010000C947E000C947E000C947E000C947E0068
:100020000C947E000C947E000C947E000C947E0058
:100030000C947E000C947E000C947E000C947E0048
:100040000C9404020C947E000C947E000C947E00B0
:100050000C947E000C947E000C947E000C947E0028
:100060000C947E000C947E00000000002400270009
:100070002A0000000000250028002B0000000000DE
:1000800023002600290004040404040404040202DA
:100090000202020203030303030301020408102007
:1000A0004080010204081020010204081020000012
:1000B0000008000201000003040700000000000027
:1000C000000011241FBECFEFD8E0DEBFCDBF11E08E
:1000D000A0E0B1E0E8E5F8E002C005900D92A430A0
:1000E000B107D9F721E0A4E0B1E001C01D92A13130
:1000F000B207E1F70E944E020C942A040C9400000F
:10010000833081F028F4813099F08230A9F008958D
:100110008730A9F08830C9F08430B1F48091800034
:100120008F7D03C0809180008F7780938000089539
:1001300084B58F7784BD089584B58F7DFBCF809182
:10014000B0008F778093B00008958091B0008F7DCC
:10015000F9CFCF93DF93282F30E0F901E255FF4F1D
:100160008491F901E656FF4FD491F901EA57FF4F08
:10017000C491CC23A1F081110E948000EC2FF0E00B
:10018000EE0FFF1FE458FF4FA591B491EC91ED23C2
:1001900081E090E009F480E0DF91CF91089580E064
:1001A00090E0FACF1F93CF93DF93282F30E0F9012F
:1001B000E255FF4F8491F901E656FF4FD491F901C2
:1001C000EA57FF4FC491CC23A9F0162F81110E944A
:1001D0008000EC2FF0E0EE0FFF1FEE58FF4FA591CF
:1001E000B4918FB7F894EC91111108C0D095DE232B
:1001F000DC938FBFDF91CF911F910895DE2BF8CF55
:10020000CF93DF9390E0FC01E656FF4F24918A578D
:100210009F4FFC0184918823D1F090E0880F991FB3
:10022000FC01E859FF4FA591B491FC01EE58FF4F36
:10023000C591D491623071F49FB7F8943C91822FAC
:10024000809583238C93E8812E2B28839FBFDF9199
:10025000CF9108958FB7F894EC912E2B2C938FBFEC
:10026000F6CF3FB7F89480910D0190910E01A091C7
:100270000F01B091100126B5A89B05C02F3F19F0C2
:100280000196A11DB11D3FBFBA2FA92F982F882716
:10029000BC01CD01620F711D811D911D42E0660FF1
:1002A000771F881F991F4A95D1F708958F929F92C3
:1002B000AF92BF92CF92DF92EF92FF924B015C011F
:1002C0000E9431016B017C010E9431016C197D0992
:1002D0008E099F09683E734081059105A8F321E0CE
:1002E000821A9108A108B10888EEC80E83E0D81ED2
:1002F000E11CF11C81149104A104B10429F7FF90C1
:10030000EF90DF90CF90BF90AF909F908F90089527
:100310002FB7F8946091090170910A0180910B0147
:1003200090910C012FBF0895CF92DF92EF92FF9230
:10033000CF93C82F0E9488016B017C010E94880125
:100340006C197D098E099F096838734181059105F3
:10035000A8F461E08C2F0E94D20064EF71E080E08D
:1003600090E00E94560160E08C2F0E94D20064EF62
:1003700071E080E090E00E945601E0CFCF91FF90C5
:10038000EF90DF90CF9008950F931F93CF93DF935B
:10039000D82F8B01C42F61E00E94D20061E00A30A7
:1003A000110561F58AE00E94D20060E08BE00E94B6
:1003B000D20068E873E180E090E00E94560160E0BE
:1003C0008AE00E94D20060E08BE00E94D20060E0F0
:1003D0008D2F0E94D20081E0C827C09300010E94A7
:1003E0008801609304017093050180930601909346
:1003F0000701DF91CF911F910F9108958BE00E942B
:10040000D20060E08AE0D3CF1F920F920FB60F9216
:1004100011242F933F938F939F93AF93BF9380911A
:10042000090190910A01A0910B01B0910C0130914A
:10043000080123E0230F2D3758F50196A11DB11DAA
:10044000209308018093090190930A01A0930B0166
:10045000B0930C0180910D0190910E01A0910F01BC
:10046000B09110010196A11DB11D80930D019093D3
:100470000E01A0930F01B0931001BF91AF919F9116
:100480008F913F912F910F900FBE0F901F90189555
:1004900026E8230F0296A11DB11DD2CF789484B512
:1004A000826084BD84B5816084BD85B5826085BD70
:1004B00085B5816085BD80916E00816080936E00FE
:1004C00010928100809181008260809381008091F0
:1004D00081008160809381008091800081608093A1
:1004E00080008091B10084608093B1008091B00061
:1004F00081608093B00080917A00846080937A005C
:1005000080917A00826080937A0080917A00816085
:1005100080937A0080917A00806880937A001092AC
:10052000C10061E087E00E94000161E088E00E9474
:10053000000161E089E00E94000161E08AE00E9420
:10054000000161E08BE00E94000162E082E00E9415
:10055000000162E083E00E94000162E084E00E940A
:10056000000162E085E00E94000162E086E00E94F6
:100570000001C0E0D0E00E94880120910201222306
:1005800009F4BCC0C0900401D0900501E0900601C0
:10059000F09007019B01AC012C193D094E095F0940
:1005A00069017A0130E1C31637E2D306E104F104B0
:1005B00008F4A4C0609304017093050180930601C0
:1005C000909307010E9488016B017C010E948801C1
:1005D0006C197D098E099F09643C7940810591055C
:1005E000E8F461E087E00E94D20061E088E00E94C8
:1005F000D20064EF71E080E090E00E94560160E07C
:1006000087E00E94D20060E088E00E94D20064EFA0
:1006100071E080E090E00E945601D8CF61E089E06F
:100620000E94D20061E08AE00E94D20060E08BE08C
:100630000E94D20068E873E180E090E00E945601D9
:1006400060E08AE00E94D20060E089E00E94D2006F
:1006500060E177E280E090E00E9456010E9488010C
:100660006B017C010E9488016C197D098E099F092C
:10067000643C794081059105E8F461E089E00E94DD
:10068000D20061E088E00E94D20064EF71E080E077
:1006900090E00E94560160E089E00E94D20060E094
:1006A00088E00E94D20064EF71E080E090E00E9458
:1006B0005601D8CF61E087E00E94D20060E08AE076
:1006C0000E94D20061E08BE00E94D20068E873E1F2
:1006D00080E090E00E94560160E08BE00E94D20032
:1006E00060E087E00E94D2000E94880160930401CC
:1006F00070930501809306019093070182E00E94A8
:10070000A900892B01F580910101882339F110920C
:10071000010161E087E00E94D20068EB7BE080E0AD
:1007200090E00E94560187E090E00E949401409181
:1007300000016AE070E088E090E00E94C40181E07E
:10074000809302010BC083E00E94A900892BD9F29B
:1007500084E00E94A900892B09F446C085E00E942C
:10076000A900892B09F062C01092010110920201C8
:1007700060E08AE00E94D20060E08BE00E94D2003C
:1007800060E087E00E94D20060E088E00E94D20032
:1007900060E089E00E94D2000E9488016093040119
:1007A00070930501809306019093070180910101E8
:1007B000811114C082E00E94A900892BF1F511E09B
:1007C000109301010E948801609304017093050158
:1007D000809306019093070110930201209709F47A
:1007E000CACE0E940000C7CE80910101882309F47F
:1007F000B5CF1092010161E088E00E94D20068EB61
:100800007BE080E090E00E94560188E090E00E944A
:1008100094014091000111E041276BE070E089E014
:1008200090E00E94C4011093020198CF86E00E94DC
:10083000A900892B09F498CFB9CF83E00E94A900C1
:10084000892B09F4BCCF84E00E94A900892B09F40C
:08085000B6CFC4CFF894FFCF2E
:040858000101010099
:00000001FF
